{
  "_format": "hh-sol-artifact-1",
  "contractName": "RelayContractor",
  "sourceName": "contracts/RelayContractor.sol",
  "abi": [
    {
      "anonymous": false,
      "inputs": [
        {
          "indexed": false,
          "internalType": "uint8",
          "name": "version",
          "type": "uint8"
        }
      ],
      "name": "Initialized",
      "type": "event"
    },
    {
      "anonymous": false,
      "inputs": [
        {
          "indexed": true,
          "internalType": "address",
          "name": "previousOwner",
          "type": "address"
        },
        {
          "indexed": true,
          "internalType": "address",
          "name": "newOwner",
          "type": "address"
        }
      ],
      "name": "OwnershipTransferred",
      "type": "event"
    },
    {
      "inputs": [
        {
          "internalType": "address",
          "name": "keyManager",
          "type": "address"
        },
        {
          "internalType": "uint256",
          "name": "gasPrice",
          "type": "uint256"
        },
        {
          "internalType": "bytes",
          "name": "signature",
          "type": "bytes"
        },
        {
          "internalType": "uint256",
          "name": "nonce",
          "type": "uint256"
        },
        {
          "internalType": "bytes",
          "name": "payload",
          "type": "bytes"
        }
      ],
      "name": "executeRelayCall",
      "outputs": [
        {
          "internalType": "bool",
          "name": "success",
          "type": "bool"
        },
        {
          "internalType": "bytes",
          "name": "result",
          "type": "bytes"
        }
      ],
      "stateMutability": "payable",
      "type": "function"
    },
    {
      "inputs": [],
      "name": "fee",
      "outputs": [
        {
          "internalType": "uint256",
          "name": "",
          "type": "uint256"
        }
      ],
      "stateMutability": "view",
      "type": "function"
    },
    {
      "inputs": [
        {
          "internalType": "address",
          "name": "owner",
          "type": "address"
        },
        {
          "internalType": "address",
          "name": "rewardToken",
          "type": "address"
        },
        {
          "internalType": "uint256",
          "name": "fee_",
          "type": "uint256"
        }
      ],
      "name": "initialize",
      "outputs": [],
      "stateMutability": "nonpayable",
      "type": "function"
    },
    {
      "inputs": [],
      "name": "owner",
      "outputs": [
        {
          "internalType": "address",
          "name": "",
          "type": "address"
        }
      ],
      "stateMutability": "view",
      "type": "function"
    },
    {
      "inputs": [
        {
          "internalType": "address",
          "name": "profile",
          "type": "address"
        }
      ],
      "name": "quota",
      "outputs": [
        {
          "internalType": "uint256",
          "name": "used",
          "type": "uint256"
        },
        {
          "internalType": "uint256",
          "name": "remaining",
          "type": "uint256"
        }
      ],
      "stateMutability": "view",
      "type": "function"
    },
    {
      "inputs": [],
      "name": "renounceOwnership",
      "outputs": [],
      "stateMutability": "nonpayable",
      "type": "function"
    },
    {
      "inputs": [
        {
          "internalType": "uint256",
          "name": "newFee",
          "type": "uint256"
        }
      ],
      "name": "setFee",
      "outputs": [],
      "stateMutability": "nonpayable",
      "type": "function"
    },
    {
      "inputs": [
        {
          "internalType": "address",
          "name": "newRewardToken",
          "type": "address"
        }
      ],
      "name": "setRewardToken",
      "outputs": [],
      "stateMutability": "nonpayable",
      "type": "function"
    },
    {
      "inputs": [
        {
          "internalType": "address",
          "name": "newOwner",
          "type": "address"
        }
      ],
      "name": "transferOwnership",
      "outputs": [],
      "stateMutability": "nonpayable",
      "type": "function"
    }
  ],
  "bytecode": "0x608060405234801561001057600080fd5b50611a0f806100206000396000f3fe6080604052600436106100865760003560e01c8063715018a611610059578063715018a61461014c5780638aee8127146101635780638da5cb5b1461018c578063ddca3f43146101b7578063f2fde38b146101e257610086565b80631794bb3c1461008b5780631cee24f5146100b45780635536fa1c146100f257806369fe0e2d14610123575b600080fd5b34801561009757600080fd5b506100b260048036038101906100ad9190610e43565b61020b565b005b3480156100c057600080fd5b506100db60048036038101906100d69190610e96565b610395565b6040516100e9929190610ed2565b60405180910390f35b61010c600480360381019061010791906110a1565b610552565b60405161011a9291906111fa565b60405180910390f35b34801561012f57600080fd5b5061014a6004803603810190610145919061122a565b6108f5565b005b34801561015857600080fd5b506101616109c4565b005b34801561016f57600080fd5b5061018a60048036038101906101859190610e96565b610a45565b005b34801561019857600080fd5b506101a1610b54565b6040516101ae9190611266565b60405180910390f35b3480156101c357600080fd5b506101cc610b7d565b6040516101d99190611281565b60405180910390f35b3480156101ee57600080fd5b5061020960048036038101906102049190610e96565b610b87565b005b60008060019054906101000a900460ff1615905080801561023c5750600160008054906101000a900460ff1660ff16105b80610269575061024b30610c78565b1580156102685750600160008054906101000a900460ff1660ff16145b5b6102a8576040517f08c379a000000000000000000000000000000000000000000000000000000000815260040161029f9061131f565b60405180910390fd5b60016000806101000a81548160ff021916908360ff16021790555080156102e5576001600060016101000a81548160ff0219169083151502179055505b6102ee84610c9b565b8160028190555082600160006101000a81548173ffffffffffffffffffffffffffffffffffffffff021916908373ffffffffffffffffffffffffffffffffffffffff160217905550801561038f5760008060016101000a81548160ff0219169083151502179055507f7f26b83ff96e1f2b6a682f133852f6798a09c465da95921460cefb384740249860016040516103869190611391565b60405180910390a15b50505050565b6000806000600160009054906101000a900473ffffffffffffffffffffffffffffffffffffffff1673ffffffffffffffffffffffffffffffffffffffff1663dd62ed3e85306040518363ffffffff1660e01b81526004016103f79291906113ac565b60206040518083038186803b15801561040f57600080fd5b505afa158015610423573d6000803e3d6000fd5b505050506040513d601f19601f8201168201806040525081019061044791906113ea565b90506000600160009054906101000a900473ffffffffffffffffffffffffffffffffffffffff1673ffffffffffffffffffffffffffffffffffffffff166370a08231866040518263ffffffff1660e01b81526004016104a69190611266565b60206040518083038186803b1580156104be57600080fd5b505afa1580156104d2573d6000803e3d6000fd5b505050506040513d601f19601f820116820180604052508101906104f691906113ea565b90508082116105055781610507565b805b9250600360008673ffffffffffffffffffffffffffffffffffffffff1673ffffffffffffffffffffffffffffffffffffffff1681526020019081526020016000205493505050915091565b600060603373ffffffffffffffffffffffffffffffffffffffff16610575610b54565b73ffffffffffffffffffffffffffffffffffffffff16146105cb576040517f08c379a00000000000000000000000000000000000000000000000000000000081526004016105c290611463565b60405180910390fd5b60008873ffffffffffffffffffffffffffffffffffffffff1663d4b839926040518163ffffffff1660e01b815260040160206040518083038186803b15801561061357600080fd5b505afa158015610627573d6000803e3d6000fd5b505050506040513d601f19601f8201168201806040525081019061064b9190611498565b905060005a90508973ffffffffffffffffffffffffffffffffffffffff1663902d5fa0898989896040518563ffffffff1660e01b815260040161069194939291906114f2565b600060405180830381600087803b1580156106ab57600080fd5b505af19250505080156106e157506040513d6000823e3d601f19601f820116820180604052508101906106de91906115a9565b60015b610782576106ed6115ff565b806308c379a0141561071a5750610702611621565b8061070d5750610742565b600094508093505061077d565b634e487b7114156107425761072d6116b7565b906107385750610742565b600094505061077d565b3d806000811461076e576040519150601f19603f3d011682016040523d82523d6000602084013e610773565b606091505b5060009450809350505b61078b565b60019450809350505b60005a826107999190611707565b905060008a826107a9919061173b565b90506000620186a0600254836107bf919061173b565b6107c991906117c4565b905081600360008773ffffffffffffffffffffffffffffffffffffffff1673ffffffffffffffffffffffffffffffffffffffff168152602001908152602001600020600082825461081a91906117f5565b92505081905550600160009054906101000a900473ffffffffffffffffffffffffffffffffffffffff1673ffffffffffffffffffffffffffffffffffffffff166323b872dd86610868610b54565b848661087491906117f5565b6040518463ffffffff1660e01b81526004016108929392919061184b565b602060405180830381600087803b1580156108ac57600080fd5b505af11580156108c0573d6000803e3d6000fd5b505050506040513d601f19601f820116820180604052508101906108e491906118ae565b505050505050965096945050505050565b3373ffffffffffffffffffffffffffffffffffffffff16610914610b54565b73ffffffffffffffffffffffffffffffffffffffff161461096a576040517f08c379a000000000000000000000000000000000000000000000000000000000815260040161096190611463565b60405180910390fd5b620186a08111156109b0576040517f08c379a00000000000000000000000000000000000000000000000000000000081526004016109a790611927565b60405180910390fd5b80600254146109c157806002819055505b50565b3373ffffffffffffffffffffffffffffffffffffffff166109e3610b54565b73ffffffffffffffffffffffffffffffffffffffff1614610a39576040517f08c379a0000000000000000000000000000000000000000000000000000000008152600401610a3090611463565b60405180910390fd5b610a436000610c9b565b565b3373ffffffffffffffffffffffffffffffffffffffff16610a64610b54565b73ffffffffffffffffffffffffffffffffffffffff1614610aba576040517f08c379a0000000000000000000000000000000000000000000000000000000008152600401610ab190611463565b60405180910390fd5b8073ffffffffffffffffffffffffffffffffffffffff16600160009054906101000a900473ffffffffffffffffffffffffffffffffffffffff1673ffffffffffffffffffffffffffffffffffffffff1614610b515780600160006101000a81548173ffffffffffffffffffffffffffffffffffffffff021916908373ffffffffffffffffffffffffffffffffffffffff1602179055505b50565b60008060029054906101000a900473ffffffffffffffffffffffffffffffffffffffff16905090565b6000600254905090565b3373ffffffffffffffffffffffffffffffffffffffff16610ba6610b54565b73ffffffffffffffffffffffffffffffffffffffff1614610bfc576040517f08c379a0000000000000000000000000000000000000000000000000000000008152600401610bf390611463565b60405180910390fd5b600073ffffffffffffffffffffffffffffffffffffffff168173ffffffffffffffffffffffffffffffffffffffff161415610c6c576040517f08c379a0000000000000000000000000000000000000000000000000000000008152600401610c63906119b9565b60405180910390fd5b610c7581610c9b565b50565b6000808273ffffffffffffffffffffffffffffffffffffffff163b119050919050565b610ca3610b54565b73ffffffffffffffffffffffffffffffffffffffff168173ffffffffffffffffffffffffffffffffffffffff1614610d985760008060029054906101000a900473ffffffffffffffffffffffffffffffffffffffff16905081600060026101000a81548173ffffffffffffffffffffffffffffffffffffffff021916908373ffffffffffffffffffffffffffffffffffffffff1602179055508173ffffffffffffffffffffffffffffffffffffffff168173ffffffffffffffffffffffffffffffffffffffff167f8be0079c531659141344cd1fd0a4f28419497f9722a3daafe3b4186f6b6457e060405160405180910390a3505b50565b6000604051905090565b600080fd5b600080fd5b600073ffffffffffffffffffffffffffffffffffffffff82169050919050565b6000610dda82610daf565b9050919050565b610dea81610dcf565b8114610df557600080fd5b50565b600081359050610e0781610de1565b92915050565b6000819050919050565b610e2081610e0d565b8114610e2b57600080fd5b50565b600081359050610e3d81610e17565b92915050565b600080600060608486031215610e5c57610e5b610da5565b5b6000610e6a86828701610df8565b9350506020610e7b86828701610df8565b9250506040610e8c86828701610e2e565b9150509250925092565b600060208284031215610eac57610eab610da5565b5b6000610eba84828501610df8565b91505092915050565b610ecc81610e0d565b82525050565b6000604082019050610ee76000830185610ec3565b610ef46020830184610ec3565b9392505050565b600080fd5b600080fd5b6000601f19601f8301169050919050565b7f4e487b7100000000000000000000000000000000000000000000000000000000600052604160045260246000fd5b610f4e82610f05565b810181811067ffffffffffffffff82111715610f6d57610f6c610f16565b5b80604052505050565b6000610f80610d9b565b9050610f8c8282610f45565b919050565b600067ffffffffffffffff821115610fac57610fab610f16565b5b610fb582610f05565b9050602081019050919050565b82818337600083830152505050565b6000610fe4610fdf84610f91565b610f76565b90508281526020810184848401111561100057610fff610f00565b5b61100b848285610fc2565b509392505050565b600082601f83011261102857611027610efb565b5b8135611038848260208601610fd1565b91505092915050565b600080fd5b600080fd5b60008083601f84011261106157611060610efb565b5b8235905067ffffffffffffffff81111561107e5761107d611041565b5b60208301915083600182028301111561109a57611099611046565b5b9250929050565b60008060008060008060a087890312156110be576110bd610da5565b5b60006110cc89828a01610df8565b96505060206110dd89828a01610e2e565b955050604087013567ffffffffffffffff8111156110fe576110fd610daa565b5b61110a89828a01611013565b945050606061111b89828a01610e2e565b935050608087013567ffffffffffffffff81111561113c5761113b610daa565b5b61114889828a0161104b565b92509250509295509295509295565b60008115159050919050565b61116c81611157565b82525050565b600081519050919050565b600082825260208201905092915050565b60005b838110156111ac578082015181840152602081019050611191565b838111156111bb576000848401525b50505050565b60006111cc82611172565b6111d6818561117d565b93506111e681856020860161118e565b6111ef81610f05565b840191505092915050565b600060408201905061120f6000830185611163565b818103602083015261122181846111c1565b90509392505050565b6000602082840312156112405761123f610da5565b5b600061124e84828501610e2e565b91505092915050565b61126081610dcf565b82525050565b600060208201905061127b6000830184611257565b92915050565b60006020820190506112966000830184610ec3565b92915050565b600082825260208201905092915050565b7f496e697469616c697a61626c653a20636f6e747261637420697320616c72656160008201527f647920696e697469616c697a6564000000000000000000000000000000000000602082015250565b6000611309602e8361129c565b9150611314826112ad565b604082019050919050565b60006020820190508181036000830152611338816112fc565b9050919050565b6000819050919050565b600060ff82169050919050565b6000819050919050565b600061137b6113766113718461133f565b611356565b611349565b9050919050565b61138b81611360565b82525050565b60006020820190506113a66000830184611382565b92915050565b60006040820190506113c16000830185611257565b6113ce6020830184611257565b9392505050565b6000815190506113e481610e17565b92915050565b600060208284031215611400576113ff610da5565b5b600061140e848285016113d5565b91505092915050565b7f4f776e61626c653a2063616c6c6572206973206e6f7420746865206f776e6572600082015250565b600061144d60208361129c565b915061145882611417565b602082019050919050565b6000602082019050818103600083015261147c81611440565b9050919050565b60008151905061149281610de1565b92915050565b6000602082840312156114ae576114ad610da5565b5b60006114bc84828501611483565b91505092915050565b60006114d1838561117d565b93506114de838584610fc2565b6114e783610f05565b840190509392505050565b6000606082019050818103600083015261150c81876111c1565b905061151b6020830186610ec3565b818103604083015261152e8184866114c5565b905095945050505050565b600061154c61154784610f91565b610f76565b90508281526020810184848401111561156857611567610f00565b5b61157384828561118e565b509392505050565b600082601f8301126115905761158f610efb565b5b81516115a0848260208601611539565b91505092915050565b6000602082840312156115bf576115be610da5565b5b600082015167ffffffffffffffff8111156115dd576115dc610daa565b5b6115e98482850161157b565b91505092915050565b60008160e01c9050919050565b600060033d111561161e5760046000803e61161b6000516115f2565b90505b90565b600060443d1015611631576116b4565b611639610d9b565b60043d036004823e80513d602482011167ffffffffffffffff821117156116615750506116b4565b808201805167ffffffffffffffff81111561167f57505050506116b4565b80602083010160043d03850181111561169c5750505050506116b4565b6116ab82602001850186610f45565b82955050505050505b90565b60008060233d11156116d4576020600460003e6001915060005190505b9091565b7f4e487b7100000000000000000000000000000000000000000000000000000000600052601160045260246000fd5b600061171282610e0d565b915061171d83610e0d565b9250828210156117305761172f6116d8565b5b828203905092915050565b600061174682610e0d565b915061175183610e0d565b9250817fffffffffffffffffffffffffffffffffffffffffffffffffffffffffffffffff048311821515161561178a576117896116d8565b5b828202905092915050565b7f4e487b7100000000000000000000000000000000000000000000000000000000600052601260045260246000fd5b60006117cf82610e0d565b91506117da83610e0d565b9250826117ea576117e9611795565b5b828204905092915050565b600061180082610e0d565b915061180b83610e0d565b9250827fffffffffffffffffffffffffffffffffffffffffffffffffffffffffffffffff038211156118405761183f6116d8565b5b828201905092915050565b60006060820190506118606000830186611257565b61186d6020830185611257565b61187a6040830184610ec3565b949350505050565b61188b81611157565b811461189657600080fd5b50565b6000815190506118a881611882565b92915050565b6000602082840312156118c4576118c3610da5565b5b60006118d284828501611899565b91505092915050565b7f496e76616c696420666565000000000000000000000000000000000000000000600082015250565b6000611911600b8361129c565b915061191c826118db565b602082019050919050565b6000602082019050818103600083015261194081611904565b9050919050565b7f4f776e61626c653a206e6577206f776e657220697320746865207a65726f206160008201527f6464726573730000000000000000000000000000000000000000000000000000602082015250565b60006119a360268361129c565b91506119ae82611947565b604082019050919050565b600060208201905081810360008301526119d281611996565b905091905056fea2646970667358221220e0ad26d080a708ce89e583dfa62c8bade0bd66e1d02a791b622374243f28619964736f6c63430008090033",
  "linkReferences": {},
  "deployedLinkReferences": {}
}